{
  "_format": "hh-sol-artifact-1",
  "contractName": "AIInferenceMarketplace",
  "sourceName": "contracts/inferenceusage.sol",
  "abi": [
    {
      "inputs": [
        {
          "internalType": "uint256",
          "name": "_platformFee",
          "type": "uint256"
        }
      ],
      "stateMutability": "nonpayable",
      "type": "constructor"
    },
    {
      "inputs": [],
      "name": "AlreadyRegistered",
      "type": "error"
    },
    {
      "inputs": [],
      "name": "InsufficientBalance",
      "type": "error"
    },
    {
      "inputs": [],
      "name": "InvalidAddress",
      "type": "error"
    },
    {
      "inputs": [],
      "name": "InvalidAmount",
      "type": "error"
    },
    {
      "inputs": [],
      "name": "InvalidState",
      "type": "error"
    },
    {
      "inputs": [],
      "name": "NotAuthorized",
      "type": "error"
    },
    {
      "inputs": [],
      "name": "OperatorNotRegistered",
      "type": "error"
    },
    {
      "inputs": [],
      "name": "PaymentFailed",
      "type": "error"
    },
    {
      "inputs": [],
      "name": "WithdrawalFailed",
      "type": "error"
    },
    {
      "anonymous": false,
      "inputs": [
        {
          "indexed": true,
          "internalType": "address",
          "name": "account",
          "type": "address"
        },
        {
          "indexed": false,
          "internalType": "uint256",
          "name": "amount",
          "type": "uint256"
        }
      ],
      "name": "FundsWithdrawn",
      "type": "event"
    },
    {
      "anonymous": false,
      "inputs": [
        {
          "indexed": true,
          "internalType": "address",
          "name": "operator",
          "type": "address"
        },
        {
          "indexed": false,
          "internalType": "uint256",
          "name": "requestId",
          "type": "uint256"
        },
        {
          "indexed": false,
          "internalType": "uint256",
          "name": "payment",
          "type": "uint256"
        }
      ],
      "name": "InferenceCompleted",
      "type": "event"
    },
    {
      "anonymous": false,
      "inputs": [
        {
          "indexed": true,
          "internalType": "address",
          "name": "user",
          "type": "address"
        },
        {
          "indexed": true,
          "internalType": "address",
          "name": "operator",
          "type": "address"
        },
        {
          "indexed": false,
          "internalType": "uint256",
          "name": "requestId",
          "type": "uint256"
        },
        {
          "indexed": false,
          "internalType": "uint256",
          "name": "payment",
          "type": "uint256"
        }
      ],
      "name": "InferenceRequested",
      "type": "event"
    },
    {
      "anonymous": false,
      "inputs": [
        {
          "indexed": true,
          "internalType": "address",
          "name": "operator",
          "type": "address"
        },
        {
          "indexed": false,
          "internalType": "string",
          "name": "modelDetails",
          "type": "string"
        }
      ],
      "name": "OperatorRegistered",
      "type": "event"
    },
    {
      "anonymous": false,
      "inputs": [
        {
          "indexed": true,
          "internalType": "address",
          "name": "operator",
          "type": "address"
        },
        {
          "indexed": false,
          "internalType": "string",
          "name": "modelDetails",
          "type": "string"
        }
      ],
      "name": "OperatorUpdated",
      "type": "event"
    },
    {
      "anonymous": false,
      "inputs": [
        {
          "indexed": false,
          "internalType": "uint256",
          "name": "newFee",
          "type": "uint256"
        }
      ],
      "name": "PlatformFeeUpdated",
      "type": "event"
    },
    {
      "stateMutability": "payable",
      "type": "fallback"
    },
    {
      "inputs": [
        {
          "internalType": "address",
          "name": "_operator",
          "type": "address"
        },
        {
          "internalType": "uint256",
          "name": "_tokenCount",
          "type": "uint256"
        }
      ],
      "name": "calculatePayment",
      "outputs": [
        {
          "internalType": "uint256",
          "name": "",
          "type": "uint256"
        }
      ],
      "stateMutability": "view",
      "type": "function"
    },
    {
      "inputs": [
        {
          "internalType": "uint256",
          "name": "_requestId",
          "type": "uint256"
        }
      ],
      "name": "completeInference",
      "outputs": [],
      "stateMutability": "nonpayable",
      "type": "function"
    },
    {
      "inputs": [
        {
          "internalType": "address",
          "name": "_operator",
          "type": "address"
        }
      ],
      "name": "getOperatorDetails",
      "outputs": [
        {
          "internalType": "bool",
          "name": "isRegistered",
          "type": "bool"
        },
        {
          "internalType": "uint256",
          "name": "totalEarnings",
          "type": "uint256"
        },
        {
          "internalType": "uint256",
          "name": "availableBalance",
          "type": "uint256"
        },
        {
          "internalType": "uint256",
          "name": "completedTasks",
          "type": "uint256"
        },
        {
          "internalType": "uint256",
          "name": "minimumPayment",
          "type": "uint256"
        },
        {
          "internalType": "uint256",
          "name": "costPerToken",
          "type": "uint256"
        },
        {
          "internalType": "string",
          "name": "modelDetails",
          "type": "string"
        },
        {
          "internalType": "bool",
          "name": "isActive",
          "type": "bool"
        }
      ],
      "stateMutability": "view",
      "type": "function"
    },
    {
      "inputs": [
        {
          "internalType": "address",
          "name": "",
          "type": "address"
        }
      ],
      "name": "operators",
      "outputs": [
        {
          "internalType": "bool",
          "name": "isRegistered",
          "type": "bool"
        },
        {
          "internalType": "uint256",
          "name": "totalEarnings",
          "type": "uint256"
        },
        {
          "internalType": "uint256",
          "name": "availableBalance",
          "type": "uint256"
        },
        {
          "internalType": "uint256",
          "name": "completedTasks",
          "type": "uint256"
        },
        {
          "internalType": "uint256",
          "name": "minimumPayment",
          "type": "uint256"
        },
        {
          "internalType": "uint256",
          "name": "costPerToken",
          "type": "uint256"
        },
        {
          "internalType": "string",
          "name": "modelDetails",
          "type": "string"
        },
        {
          "internalType": "bool",
          "name": "isActive",
          "type": "bool"
        }
      ],
      "stateMutability": "view",
      "type": "function"
    },
    {
      "inputs": [],
      "name": "owner",
      "outputs": [
        {
          "internalType": "address",
          "name": "",
          "type": "address"
        }
      ],
      "stateMutability": "view",
      "type": "function"
    },
    {
      "inputs": [],
      "name": "platformFee",
      "outputs": [
        {
          "internalType": "uint256",
          "name": "",
          "type": "uint256"
        }
      ],
      "stateMutability": "view",
      "type": "function"
    },
    {
      "inputs": [
        {
          "internalType": "address",
          "name": "",
          "type": "address"
        }
      ],
      "name": "platformFeeBalance",
      "outputs": [
        {
          "internalType": "uint256",
          "name": "",
          "type": "uint256"
        }
      ],
      "stateMutability": "view",
      "type": "function"
    },
    {
      "inputs": [
        {
          "internalType": "uint256",
          "name": "_minimumPayment",
          "type": "uint256"
        },
        {
          "internalType": "uint256",
          "name": "_costPerToken",
          "type": "uint256"
        },
        {
          "internalType": "string",
          "name": "_modelDetails",
          "type": "string"
        }
      ],
      "name": "registerOperator",
      "outputs": [],
      "stateMutability": "nonpayable",
      "type": "function"
    },
    {
      "inputs": [
        {
          "internalType": "address",
          "name": "",
          "type": "address"
        }
      ],
      "name": "requestCounts",
      "outputs": [
        {
          "internalType": "uint256",
          "name": "",
          "type": "uint256"
        }
      ],
      "stateMutability": "view",
      "type": "function"
    },
    {
      "inputs": [
        {
          "internalType": "address",
          "name": "_operator",
          "type": "address"
        },
        {
          "internalType": "uint256",
          "name": "_tokenCount",
          "type": "uint256"
        }
      ],
      "name": "requestInference",
      "outputs": [],
      "stateMutability": "payable",
      "type": "function"
    },
    {
      "inputs": [
        {
          "internalType": "address",
          "name": "",
          "type": "address"
        },
        {
          "internalType": "uint256",
          "name": "",
          "type": "uint256"
        }
      ],
      "name": "requests",
      "outputs": [
        {
          "internalType": "address",
          "name": "user",
          "type": "address"
        },
        {
          "internalType": "uint256",
          "name": "tokenCount",
          "type": "uint256"
        },
        {
          "internalType": "uint256",
          "name": "payment",
          "type": "uint256"
        },
        {
          "internalType": "uint256",
          "name": "timestamp",
          "type": "uint256"
        },
        {
          "internalType": "bool",
          "name": "completed",
          "type": "bool"
        }
      ],
      "stateMutability": "view",
      "type": "function"
    },
    {
      "inputs": [],
      "name": "totalTransactions",
      "outputs": [
        {
          "internalType": "uint256",
          "name": "",
          "type": "uint256"
        }
      ],
      "stateMutability": "view",
      "type": "function"
    },
    {
      "inputs": [],
      "name": "totalVolume",
      "outputs": [
        {
          "internalType": "uint256",
          "name": "",
          "type": "uint256"
        }
      ],
      "stateMutability": "view",
      "type": "function"
    },
    {
      "inputs": [
        {
          "internalType": "uint256",
          "name": "_minimumPayment",
          "type": "uint256"
        },
        {
          "internalType": "uint256",
          "name": "_costPerToken",
          "type": "uint256"
        },
        {
          "internalType": "string",
          "name": "_modelDetails",
          "type": "string"
        },
        {
          "internalType": "bool",
          "name": "_isActive",
          "type": "bool"
        }
      ],
      "name": "updateOperator",
      "outputs": [],
      "stateMutability": "nonpayable",
      "type": "function"
    },
    {
      "inputs": [
        {
          "internalType": "uint256",
          "name": "_newFee",
          "type": "uint256"
        }
      ],
      "name": "updatePlatformFee",
      "outputs": [],
      "stateMutability": "nonpayable",
      "type": "function"
    },
    {
      "inputs": [
        {
          "internalType": "address",
          "name": "",
          "type": "address"
        }
      ],
      "name": "users",
      "outputs": [
        {
          "internalType": "uint256",
          "name": "totalSpent",
          "type": "uint256"
        },
        {
          "internalType": "uint256",
          "name": "totalRequests",
          "type": "uint256"
        },
        {
          "internalType": "uint256",
          "name": "lastInteraction",
          "type": "uint256"
        }
      ],
      "stateMutability": "view",
      "type": "function"
    },
    {
      "inputs": [],
      "name": "withdrawFunds",
      "outputs": [],
      "stateMutability": "nonpayable",
      "type": "function"
    },
    {
      "stateMutability": "payable",
      "type": "receive"
    }
  ],
  "bytecode": "0x60806040523480156200001157600080fd5b506040516200233938038062002339833981810160405281019062000037919062000102565b6103e881111562000074576040517f2c5211c600000000000000000000000000000000000000000000000000000000815260040160405180910390fd5b336000806101000a81548173ffffffffffffffffffffffffffffffffffffffff021916908373ffffffffffffffffffffffffffffffffffffffff160217905550806001819055505062000134565b600080fd5b6000819050919050565b620000dc81620000c7565b8114620000e857600080fd5b50565b600081519050620000fc81620000d1565b92915050565b6000602082840312156200011b576200011a620000c2565b5b60006200012b84828501620000eb565b91505092915050565b6121f580620001446000396000f3fe6080604052600436106101025760003560e01c80636202834f116100955780639ecebe2a116100645780639ecebe2a14610350578063a87430ba14610391578063aa0b5988146103d0578063b9a60038146103f9578063cf90e7c11461042457610109565b80636202834f1461028257806386ff06e7146102bf5780638da5cb5b146102fc578063958557dc1461032757610109565b80632b7baf37116100d15780632b7baf37146101d557806347c1dfc0146101f15780635e4b2ea71461022e5780635f81a57c1461025757610109565b806313e7c9d81461010b578063192ee2ee1461014f57806324600fc31461019357806326232a2e146101aa57610109565b3661010957005b005b34801561011757600080fd5b50610132600480360381019061012d919061171c565b61044d565b60405161014698979695949392919061180d565b60405180910390f35b34801561015b57600080fd5b506101766004803603810190610171919061171c565b610537565b60405161018a98979695949392919061180d565b60405180910390f35b34801561019f57600080fd5b506101a861066f565b005b3480156101b657600080fd5b506101bf610960565b6040516101cc9190611892565b60405180910390f35b6101ef60048036038101906101ea91906118d9565b610966565b005b3480156101fd57600080fd5b506102186004803603810190610213919061171c565b610e30565b6040516102259190611892565b60405180910390f35b34801561023a57600080fd5b5061025560048036038101906102509190611919565b610e48565b005b34801561026357600080fd5b5061026c61103a565b6040516102799190611892565b60405180910390f35b34801561028e57600080fd5b506102a960048036038101906102a491906118d9565b611040565b6040516102b69190611892565b60405180910390f35b3480156102cb57600080fd5b506102e660048036038101906102e1919061171c565b6110b9565b6040516102f39190611892565b60405180910390f35b34801561030857600080fd5b506103116110d1565b60405161031e9190611955565b60405180910390f35b34801561033357600080fd5b5061034e60048036038101906103499190611a01565b6110f5565b005b34801561035c57600080fd5b50610377600480360381019061037291906118d9565b61129e565b604051610388959493929190611a89565b60405180910390f35b34801561039d57600080fd5b506103b860048036038101906103b3919061171c565b61130e565b6040516103c793929190611adc565b60405180910390f35b3480156103dc57600080fd5b506103f760048036038101906103f29190611919565b611338565b005b34801561040557600080fd5b5061040e61143a565b60405161041b9190611892565b60405180910390f35b34801561043057600080fd5b5061044b60048036038101906104469190611b13565b611440565b005b60046020528060005260406000206000915090508060000160009054906101000a900460ff16908060010154908060020154908060030154908060040154908060050154908060060180546104a190611bb6565b80601f01602080910402602001604051908101604052809291908181526020018280546104cd90611bb6565b801561051a5780601f106104ef5761010080835404028352916020019161051a565b820191906000526020600020905b8154815290600101906020018083116104fd57829003601f168201915b5050505050908060070160009054906101000a900460ff16905088565b6000806000806000806060600080600460008b73ffffffffffffffffffffffffffffffffffffffff1673ffffffffffffffffffffffffffffffffffffffff16815260200190815260200160002090508060000160009054906101000a900460ff1681600101548260020154836003015484600401548560050154866006018760070160009054906101000a900460ff168180546105d390611bb6565b80601f01602080910402602001604051908101604052809291908181526020018280546105ff90611bb6565b801561064c5780601f106106215761010080835404028352916020019161064c565b820191906000526020600020905b81548152906001019060200180831161062f57829003601f168201915b505050505091509850985098509850985098509850985050919395975091939597565b60008060009054906101000a900473ffffffffffffffffffffffffffffffffffffffff1673ffffffffffffffffffffffffffffffffffffffff163373ffffffffffffffffffffffffffffffffffffffff160361079357600860008060009054906101000a900473ffffffffffffffffffffffffffffffffffffffff1673ffffffffffffffffffffffffffffffffffffffff1673ffffffffffffffffffffffffffffffffffffffff1681526020019081526020016000205490506000600860008060009054906101000a900473ffffffffffffffffffffffffffffffffffffffff1673ffffffffffffffffffffffffffffffffffffffff1673ffffffffffffffffffffffffffffffffffffffff16815260200190815260200160002081905550610831565b6000600460003373ffffffffffffffffffffffffffffffffffffffff1673ffffffffffffffffffffffffffffffffffffffff16815260200190815260200160002090508060000160009054906101000a900460ff1661081e576040517f25ec6c1f00000000000000000000000000000000000000000000000000000000815260040160405180910390fd5b8060020154915060008160020181905550505b6000810361086b576040517ff4d678b800000000000000000000000000000000000000000000000000000000815260040160405180910390fd5b60003373ffffffffffffffffffffffffffffffffffffffff168260405161089190611c18565b60006040518083038185875af1925050503d80600081146108ce576040519150601f19603f3d011682016040523d82523d6000602084013e6108d3565b606091505b505090508061090e576040517f27fcd9d100000000000000000000000000000000000000000000000000000000815260040160405180910390fd5b3373ffffffffffffffffffffffffffffffffffffffff167feaff4b37086828766ad3268786972c0cd24259d4c87a80f9d3963a3c3d999b0d836040516109549190611892565b60405180910390a25050565b60015481565b81600073ffffffffffffffffffffffffffffffffffffffff168173ffffffffffffffffffffffffffffffffffffffff16036109cd576040517fe6c4247b00000000000000000000000000000000000000000000000000000000815260040160405180910390fd5b6000600460008573ffffffffffffffffffffffffffffffffffffffff1673ffffffffffffffffffffffffffffffffffffffff16815260200190815260200160002090508060000160009054906101000a900460ff161580610a3d57508060070160009054906101000a900460ff16155b15610a74576040517f25ec6c1f00000000000000000000000000000000000000000000000000000000815260040160405180910390fd5b6000610a808585611040565b905080341015610abc576040517ff4d678b800000000000000000000000000000000000000000000000000000000815260040160405180910390fd5b6000600760008773ffffffffffffffffffffffffffffffffffffffff1673ffffffffffffffffffffffffffffffffffffffff1681526020019081526020016000206000815480929190610b0e90611c5c565b919050559050600061271060015484610b279190611ca4565b610b319190611d15565b905060008184610b419190611d46565b905080856002016000828254610b579190611d7a565b9250508190555080856001016000828254610b729190611d7a565b9250508190555081600860008060009054906101000a900473ffffffffffffffffffffffffffffffffffffffff1673ffffffffffffffffffffffffffffffffffffffff1673ffffffffffffffffffffffffffffffffffffffff1681526020019081526020016000206000828254610be99190611d7a565b925050819055506040518060a001604052803373ffffffffffffffffffffffffffffffffffffffff16815260200188815260200182815260200142815260200160001515815250600660008a73ffffffffffffffffffffffffffffffffffffffff1673ffffffffffffffffffffffffffffffffffffffff168152602001908152602001600020600085815260200190815260200160002060008201518160000160006101000a81548173ffffffffffffffffffffffffffffffffffffffff021916908373ffffffffffffffffffffffffffffffffffffffff16021790555060208201518160010155604082015181600201556060820151816003015560808201518160040160006101000a81548160ff0219169083151502179055509050506000600560003373ffffffffffffffffffffffffffffffffffffffff1673ffffffffffffffffffffffffffffffffffffffff168152602001908152602001600020905084816000016000828254610d5f9190611d7a565b925050819055506001816001016000828254610d7b9190611d7a565b92505081905550428160020181905550600160026000828254610d9e9190611d7a565b925050819055508460036000828254610db79190611d7a565b925050819055508873ffffffffffffffffffffffffffffffffffffffff163373ffffffffffffffffffffffffffffffffffffffff167f0171203123c70b60777fd140b34c31e3386cc83a3c70360ad8c0e7a27d127e108688604051610e1d929190611dae565b60405180910390a3505050505050505050565b60076020528060005260406000206000915090505481565b600460003373ffffffffffffffffffffffffffffffffffffffff1673ffffffffffffffffffffffffffffffffffffffff16815260200190815260200160002060000160009054906101000a900460ff16610ece576040517f25ec6c1f00000000000000000000000000000000000000000000000000000000815260040160405180910390fd5b6000600660003373ffffffffffffffffffffffffffffffffffffffff1673ffffffffffffffffffffffffffffffffffffffff168152602001908152602001600020600083815260200190815260200160002090508060040160009054906101000a900460ff1615610f6b576040517fbaf3f0f700000000000000000000000000000000000000000000000000000000815260040160405180910390fd5b60018160040160006101000a81548160ff0219169083151502179055506001600460003373ffffffffffffffffffffffffffffffffffffffff1673ffffffffffffffffffffffffffffffffffffffff1681526020019081526020016000206003016000828254610fdb9190611d7a565b925050819055503373ffffffffffffffffffffffffffffffffffffffff167f9b7c5ac2be0ee309a65f313fe8c102b744ab43105a63ad57b09ed0116041469883836002015460405161102e929190611dae565b60405180910390a25050565b60035481565b600080600460008573ffffffffffffffffffffffffffffffffffffffff1673ffffffffffffffffffffffffffffffffffffffff168152602001908152602001600020905060008160050154846110969190611ca4565b9050816004015481106110a957806110af565b81600401545b9250505092915050565b60086020528060005260406000206000915090505481565b60008054906101000a900473ffffffffffffffffffffffffffffffffffffffff1681565b600460003373ffffffffffffffffffffffffffffffffffffffff1673ffffffffffffffffffffffffffffffffffffffff16815260200190815260200160002060000160009054906101000a900460ff1661117b576040517f25ec6c1f00000000000000000000000000000000000000000000000000000000815260040160405180910390fd5b600085148061118a5750600084145b156111c1576040517f2c5211c600000000000000000000000000000000000000000000000000000000815260040160405180910390fd5b6000600460003373ffffffffffffffffffffffffffffffffffffffff1673ffffffffffffffffffffffffffffffffffffffff16815260200190815260200160002090508581600401819055508481600501819055508383826006019182611229929190611fbd565b50818160070160006101000a81548160ff0219169083151502179055503373ffffffffffffffffffffffffffffffffffffffff167f73dd87b5e16ed2d4bf5df747ce8e9efc88958c431da5bf1daad520b991ef74de858560405161128e9291906120c9565b60405180910390a2505050505050565b6006602052816000526040600020602052806000526040600020600091509150508060000160009054906101000a900473ffffffffffffffffffffffffffffffffffffffff16908060010154908060020154908060030154908060040160009054906101000a900460ff16905085565b60056020528060005260406000206000915090508060000154908060010154908060020154905083565b60008054906101000a900473ffffffffffffffffffffffffffffffffffffffff1673ffffffffffffffffffffffffffffffffffffffff163373ffffffffffffffffffffffffffffffffffffffff16146113bd576040517fea8e4eb500000000000000000000000000000000000000000000000000000000815260040160405180910390fd5b6103e88111156113f9576040517f2c5211c600000000000000000000000000000000000000000000000000000000815260040160405180910390fd5b806001819055507f45610d581145924dd7090a5017e5f2b1d6f42213bb2e95707ff86846bbfcb1ca8160405161142f9190611892565b60405180910390a150565b60025481565b600460003373ffffffffffffffffffffffffffffffffffffffff1673ffffffffffffffffffffffffffffffffffffffff16815260200190815260200160002060000160009054906101000a900460ff16156114c7576040517f3a81d6fc00000000000000000000000000000000000000000000000000000000815260040160405180910390fd5b60008414806114d65750600083145b1561150d576040517f2c5211c600000000000000000000000000000000000000000000000000000000815260040160405180910390fd5b60405180610100016040528060011515815260200160008152602001600081526020016000815260200185815260200184815260200183838080601f016020809104026020016040519081016040528093929190818152602001838380828437600081840152601f19601f82011690508083019250505050505050815260200160011515815250600460003373ffffffffffffffffffffffffffffffffffffffff1673ffffffffffffffffffffffffffffffffffffffff16815260200190815260200160002060008201518160000160006101000a81548160ff0219169083151502179055506020820151816001015560408201518160020155606082015181600301556080820151816004015560a0820151816005015560c082015181600601908161163a91906120ed565b5060e08201518160070160006101000a81548160ff0219169083151502179055509050503373ffffffffffffffffffffffffffffffffffffffff167f11a85ea4a40584362c3d9c17685709a2e02b466ac78d5eb00b6aff73d90f580583836040516116a69291906120c9565b60405180910390a250505050565b600080fd5b600080fd5b600073ffffffffffffffffffffffffffffffffffffffff82169050919050565b60006116e9826116be565b9050919050565b6116f9816116de565b811461170457600080fd5b50565b600081359050611716816116f0565b92915050565b600060208284031215611732576117316116b4565b5b600061174084828501611707565b91505092915050565b60008115159050919050565b61175e81611749565b82525050565b6000819050919050565b61177781611764565b82525050565b600081519050919050565b600082825260208201905092915050565b60005b838110156117b757808201518184015260208101905061179c565b60008484015250505050565b6000601f19601f8301169050919050565b60006117df8261177d565b6117e98185611788565b93506117f9818560208601611799565b611802816117c3565b840191505092915050565b600061010082019050611823600083018b611755565b611830602083018a61176e565b61183d604083018961176e565b61184a606083018861176e565b611857608083018761176e565b61186460a083018661176e565b81810360c083015261187681856117d4565b905061188560e0830184611755565b9998505050505050505050565b60006020820190506118a7600083018461176e565b92915050565b6118b681611764565b81146118c157600080fd5b50565b6000813590506118d3816118ad565b92915050565b600080604083850312156118f0576118ef6116b4565b5b60006118fe85828601611707565b925050602061190f858286016118c4565b9150509250929050565b60006020828403121561192f5761192e6116b4565b5b600061193d848285016118c4565b91505092915050565b61194f816116de565b82525050565b600060208201905061196a6000830184611946565b92915050565b600080fd5b600080fd5b600080fd5b60008083601f84011261199557611994611970565b5b8235905067ffffffffffffffff8111156119b2576119b1611975565b5b6020830191508360018202830111156119ce576119cd61197a565b5b9250929050565b6119de81611749565b81146119e957600080fd5b50565b6000813590506119fb816119d5565b92915050565b600080600080600060808688031215611a1d57611a1c6116b4565b5b6000611a2b888289016118c4565b9550506020611a3c888289016118c4565b945050604086013567ffffffffffffffff811115611a5d57611a5c6116b9565b5b611a698882890161197f565b93509350506060611a7c888289016119ec565b9150509295509295909350565b600060a082019050611a9e6000830188611946565b611aab602083018761176e565b611ab8604083018661176e565b611ac5606083018561176e565b611ad26080830184611755565b9695505050505050565b6000606082019050611af1600083018661176e565b611afe602083018561176e565b611b0b604083018461176e565b949350505050565b60008060008060608587031215611b2d57611b2c6116b4565b5b6000611b3b878288016118c4565b9450506020611b4c878288016118c4565b935050604085013567ffffffffffffffff811115611b6d57611b6c6116b9565b5b611b798782880161197f565b925092505092959194509250565b7f4e487b7100000000000000000000000000000000000000000000000000000000600052602260045260246000fd5b60006002820490506001821680611bce57607f821691505b602082108103611be157611be0611b87565b5b50919050565b600081905092915050565b50565b6000611c02600083611be7565b9150611c0d82611bf2565b600082019050919050565b6000611c2382611bf5565b9150819050919050565b7f4e487b7100000000000000000000000000000000000000000000000000000000600052601160045260246000fd5b6000611c6782611764565b91507fffffffffffffffffffffffffffffffffffffffffffffffffffffffffffffffff8203611c9957611c98611c2d565b5b600182019050919050565b6000611caf82611764565b9150611cba83611764565b9250828202611cc881611764565b91508282048414831517611cdf57611cde611c2d565b5b5092915050565b7f4e487b7100000000000000000000000000000000000000000000000000000000600052601260045260246000fd5b6000611d2082611764565b9150611d2b83611764565b925082611d3b57611d3a611ce6565b5b828204905092915050565b6000611d5182611764565b9150611d5c83611764565b9250828203905081811115611d7457611d73611c2d565b5b92915050565b6000611d8582611764565b9150611d9083611764565b9250828201905080821115611da857611da7611c2d565b5b92915050565b6000604082019050611dc3600083018561176e565b611dd0602083018461176e565b9392505050565b600082905092915050565b7f4e487b7100000000000000000000000000000000000000000000000000000000600052604160045260246000fd5b60008190508160005260206000209050919050565b60006020601f8301049050919050565b600082821b905092915050565b600060088302611e737fffffffffffffffffffffffffffffffffffffffffffffffffffffffffffffffff82611e36565b611e7d8683611e36565b95508019841693508086168417925050509392505050565b6000819050919050565b6000611eba611eb5611eb084611764565b611e95565b611764565b9050919050565b6000819050919050565b611ed483611e9f565b611ee8611ee082611ec1565b848454611e43565b825550505050565b600090565b611efd611ef0565b611f08818484611ecb565b505050565b5b81811015611f2c57611f21600082611ef5565b600181019050611f0e565b5050565b601f821115611f7157611f4281611e11565b611f4b84611e26565b81016020851015611f5a578190505b611f6e611f6685611e26565b830182611f0d565b50505b505050565b600082821c905092915050565b6000611f9460001984600802611f76565b1980831691505092915050565b6000611fad8383611f83565b9150826002028217905092915050565b611fc78383611dd7565b67ffffffffffffffff811115611fe057611fdf611de2565b5b611fea8254611bb6565b611ff5828285611f30565b6000601f8311600181146120245760008415612012578287013590505b61201c8582611fa1565b865550612084565b601f19841661203286611e11565b60005b8281101561205a57848901358255600182019150602085019450602081019050612035565b868310156120775784890135612073601f891682611f83565b8355505b6001600288020188555050505b50505050505050565b82818337600083830152505050565b60006120a88385611788565b93506120b583858461208d565b6120be836117c3565b840190509392505050565b600060208201905081810360008301526120e481848661209c565b90509392505050565b6120f68261177d565b67ffffffffffffffff81111561210f5761210e611de2565b5b6121198254611bb6565b612124828285611f30565b600060209050601f8311600181146121575760008415612145578287015190505b61214f8582611fa1565b8655506121b7565b601f19841661216586611e11565b60005b8281101561218d57848901518255600182019150602085019450602081019050612168565b868310156121aa57848901516121a6601f891682611f83565b8355505b6001600288020188555050505b50505050505056fea2646970667358221220f5cc2421b1329f865b3c06d438878690d25673bf1b39232c8891900bce4c61d764736f6c63430008130033",
  "linkReferences": {},
  "deployedLinkReferences": {}
}